{
  "address": "0xEc25e8bC9be8EC1434c050EE7d631887629D35A8",
  "abi": [
    {
      "anonymous": false,
      "inputs": [
        {
          "indexed": true,
          "internalType": "uint32",
          "name": "requestId",
          "type": "uint32"
        },
        {
          "indexed": false,
          "internalType": "uint256",
          "name": "randomNumber",
          "type": "uint256"
        }
      ],
      "name": "RandomNumberCompleted",
      "type": "event"
    },
    {
      "anonymous": false,
      "inputs": [
        {
          "indexed": true,
          "internalType": "uint32",
          "name": "requestId",
          "type": "uint32"
        },
        {
          "indexed": true,
          "internalType": "address",
          "name": "sender",
          "type": "address"
        }
      ],
      "name": "RandomNumberRequested",
      "type": "event"
    },
    {
      "inputs": [],
      "name": "getLastRequestId",
      "outputs": [
        {
          "internalType": "uint32",
          "name": "requestId",
          "type": "uint32"
        }
      ],
      "stateMutability": "pure",
      "type": "function"
    },
    {
      "inputs": [],
      "name": "getRequestFee",
      "outputs": [
        {
          "internalType": "address",
          "name": "_feeToken",
          "type": "address"
        },
        {
          "internalType": "uint256",
          "name": "_requestFee",
          "type": "uint256"
        }
      ],
      "stateMutability": "view",
      "type": "function"
    },
    {
      "inputs": [
        {
          "internalType": "uint32",
          "name": "",
          "type": "uint32"
        }
      ],
      "name": "isRequestComplete",
      "outputs": [
        {
          "internalType": "bool",
          "name": "",
          "type": "bool"
        }
      ],
      "stateMutability": "pure",
      "type": "function"
    },
    {
      "inputs": [
        {
          "internalType": "uint32",
          "name": "",
          "type": "uint32"
        }
      ],
      "name": "randomNumber",
      "outputs": [
        {
          "internalType": "uint256",
          "name": "",
          "type": "uint256"
        }
      ],
      "stateMutability": "view",
      "type": "function"
    },
    {
      "inputs": [],
      "name": "requestRandomNumber",
      "outputs": [
        {
          "internalType": "uint32",
          "name": "",
          "type": "uint32"
        },
        {
          "internalType": "uint32",
          "name": "",
          "type": "uint32"
        }
      ],
      "stateMutability": "pure",
      "type": "function"
    },
    {
      "inputs": [
        {
          "internalType": "uint256",
          "name": "_random",
          "type": "uint256"
        }
      ],
      "name": "setRandomNumber",
      "outputs": [],
      "stateMutability": "nonpayable",
      "type": "function"
    },
    {
      "inputs": [
        {
          "internalType": "address",
          "name": "_feeToken",
          "type": "address"
        },
        {
          "internalType": "uint256",
          "name": "_requestFee",
          "type": "uint256"
        }
      ],
      "name": "setRequestFee",
      "outputs": [],
      "stateMutability": "nonpayable",
      "type": "function"
    }
  ],
  "transactionHash": "0x2a7cba4e087bc9e0ced2ebeedc5a33355585e87307c8c35efae7ef94a89b2c72",
  "args": [],
  "solcInputHash": "eecfb35e4ba23cb77c88c809d17d6a83",
  "bytecode": "0x608060405234801561001057600080fd5b50610270806100206000396000f3fe608060405234801561001057600080fd5b506004361061007d5760003560e01c80638678a7b21161005b5780638678a7b21461010a5780639d2a5f981461011e578063d6bfea2814610141578063de1760fd1461015657600080fd5b80630d37b5371461008257806319c2b4c3146100d75780633a19b9bc146100e6575b600080fd5b6100a660015460025473ffffffffffffffffffffffffffffffffffffffff90911691565b6040805173ffffffffffffffffffffffffffffffffffffffff90931683526020830191909152015b60405180910390f35b604051600181526020016100ce565b6100fa6100f436600461020d565b50600190565b60405190151581526020016100ce565b6040805160018082526020820152016100ce565b61013361012c36600461020d565b5060005490565b6040519081526020016100ce565b61015461014f3660046101f4565b600055565b005b6101546101643660046101af565b600180547fffffffffffffffffffffffff00000000000000000000000000000000000000001673ffffffffffffffffffffffffffffffffffffffff9390931692909217909155600255565b600080604083850312156101c257600080fd5b823573ffffffffffffffffffffffffffffffffffffffff811681146101e657600080fd5b946020939093013593505050565b60006020828403121561020657600080fd5b5035919050565b60006020828403121561021f57600080fd5b813563ffffffff8116811461023357600080fd5b939250505056fea2646970667358221220ae3f9a9c026817c0d568210eb158a43264817d175250353d799c5daf0ec3f80064736f6c63430008060033",
  "devdoc": {
    "kind": "dev",
    "methods": {
      "getLastRequestId()": {
        "returns": {
          "requestId": "The last request id used in the last request"
        }
      },
      "getRequestFee()": {
        "returns": {
          "_feeToken": "_feeToken",
          "_requestFee": "_requestFee"
        }
      },
      "requestRandomNumber()": {
        "details": "Some services will complete the request immediately, others may have a time-delaySome services require payment in the form of a token, such as $LINK for Chainlink VRF",
        "returns": {
          "_0": "The ID of the request used to get the results of the RNG service",
          "_1": "The block number at which the RNG service will start generating time-delayed randomness. The calling contract should \"lock\" all activity until the result is available via the `requestId`"
        }
      }
    },
    "version": 1
  },
  "userdoc": {
    "events": {
      "RandomNumberCompleted(uint32,uint256)": {
        "notice": "Emitted when an existing request for a random number has been completed"
      },
      "RandomNumberRequested(uint32,address)": {
        "notice": "Emitted when a new request for a random number has been submitted"
      }
    },
    "kind": "user",
    "methods": {
      "getLastRequestId()": {
        "notice": "Gets the last request id used by the RNG service"
      },
      "requestRandomNumber()": {
        "notice": "Sends a request for a random number to the 3rd-party service"
      }
    },
    "version": 1
  },
  "storageLayout": {
    "storage": [
      {
        "astId": 6302,
        "contract": "contracts/test/RNGServiceStub.sol:RNGServiceStub",
        "label": "random",
        "offset": 0,
        "slot": "0",
        "type": "t_uint256"
      },
      {
        "astId": 6304,
        "contract": "contracts/test/RNGServiceStub.sol:RNGServiceStub",
        "label": "feeToken",
        "offset": 0,
        "slot": "1",
        "type": "t_address"
      },
      {
        "astId": 6306,
        "contract": "contracts/test/RNGServiceStub.sol:RNGServiceStub",
        "label": "requestFee",
        "offset": 0,
        "slot": "2",
        "type": "t_uint256"
      }
    ],
    "types": {
      "t_address": {
        "encoding": "inplace",
        "label": "address",
        "numberOfBytes": "20"
      },
      "t_uint256": {
        "encoding": "inplace",
        "label": "uint256",
        "numberOfBytes": "32"
      }
    }
  }
}